:020000040800F2
:1000000000040020DF0D0008ED0D0008EF0D0008D2
:10001000F10D0008F30D0008F50D000800000000C8
:10002000000000000000000000000000F70D0008C4
:10003000F90D000800000000FB0D0008FD0D000890
:10004000410E0008430E0008450E0008470E000848
:10005000490E00084B0E00084D0E00084F0E000818
:10006000510E0008530E0008550E0008570E0008E8
:10007000590E00085B0E00085D0E00085F0E0008B8
:10008000610E0008630E0008650E0008FF0D0008F1
:10009000FF0D0008FF0D0008FF0D00086F0E00089F
:1000A000710E0008730E0008750E0008770E000828
:1000B000790E00087B0E00087D0E00087F0E0008F8
:1000C000810E0008830E0008850E0008870E0008C8
:1000D000890E00088B0E00088D0E00088F0E000898
:1000E000910E0008930E0008950E0008970E000868
:1000F000990E00089B0E00089D0E00089F0E000838
:10010000A10E0008A30E0008A50E0008A70E000807
:10011000A90E0008AB0E0008AD0E0008AF0E0008D7
:10012000B10E0008B30E0008B50E0008B70E0008A7
:1001300000F002F800F03AF80AA090E8000C8244BF
:100140008344AAF10107DA4501D100F02FF8AFF29C
:10015000090EBAE80F0013F0010F18BFFB1A43F0A5
:100160000103184798360000B8360000103A24BF43
:1001700078C878C1FAD8520724BF30C830C144BF0C
:1001800004680C607047000000230024002500264E
:10019000103A28BF78C1FBD8520728BF30C148BFEA
:1001A0000B6070471FB51FBD10B510BD01F06FF893
:1001B0001146FFF7F7FF00F007FF01F08DF803B4D9
:1001C000FFF7F2FF03BC01F091F8000010B5044600
:1001D000C248844208D10121042000F017FB00210D
:1001E000042000F013FB46E0BD48844208D1012101
:1001F000082000F00BFB0021082000F007FB3AE08C
:10020000B848844208D10121102000F0FFFA0021F3
:10021000102000F0FBFA2EE0B348844208D10121FF
:10022000202000F0F3FA0021202000F0EFFA22E075
:10023000AE48844208D10121402000F0E7FA0021B5
:10024000402000F0E3FA16E0A948844208D10121D9
:10025000802000F0DBFA0021802000F0D7FA0AE0CD
:10026000A448844207D10121801500F0CFFA002173
:10027000A01500F0CBFA10BD10B50121084600F022
:10028000C5FA0021012000F0C1FA10BD2DE9F041AE
:10029000024600250026002000230024002791F8B4
:1002A00003C00CF00F0591F803C01CF0100F03D031
:1002B00091F802C04CEA050591F800C0BCF1000FAE
:1002C00031D0146800202BE04FF0010C0CFA00F341
:1002D000B1F800C00CEA03069E4220D183004FF023
:1002E0000F0C0CFA03F7BC4305FA03FC4CEA0404B8
:1002F00091F803C0BCF1280F06D14FF0010C0CFAA5
:1003000000FCC2F814C00AE091F803C0BCF1480F29
:1003100005D14FF0010C0CFA00FCC2F810C0401CD3
:100320000828D1D31460B1F800C0BCF1FF0F34DD50
:10033000546800202EE000F1080C4FF0010808FA84
:100340000CF3B1F800C00CEA03069E4221D18300F1
:100350004FF00F0C0CFA03F7BC4305FA03FC4CEA10
:10036000040491F803C0BCF1280F05D100F1080C7A
:1003700008FA0CF8C2F8148091F803C0BCF1480FD9
:1003800007D100F1080C4FF0010808FA0CF8C2F888
:100390001080401C0828CED35460BDE8F0814FF691
:1003A000FF710180022181700421C17070470246F3
:1003B000002093680B4201D0012000E0002070472C
:1003C0000146886880B2704702460020D3680B421D
:1003D00001D0012000E0002070470146C86880B2CB
:1003E000704701617047416170470AB1016100E0E7
:1003F00041617047C16070474FF480320A438261A7
:1004000081618261826982697047024600203A4BAD
:1004100018684FF68073184040EA02100843364BC4
:10042000186070473549C8617047F0B50A46002327
:10043000002400210025304E7168C0F3034583B2CB
:1004400000F44016B6F5401F08D121F070612A4E25
:10045000766826F07066284F7E6012E000F4801601
:10046000B6F5801F06D1032606FA05F4A14341F034
:10047000706106E0460D360103FA06F6B14341F01D
:10048000706122B1460D360103FA06F631431A4E69
:100490007160F0BD30B500228B071C0F0F2303FAEB
:1004A00004F2154B08338C1053F824309343124C4C
:1004B00008348D1044F8253023468C1053F824302E
:1004C0008C07240F00FA04F423430B4C08348D10DE
:1004D00044F8253030BD0A490860704700080140E3
:1004E000000C0140001001400014014000180140C0
:1004F000001C01400020014000000140000020429B
:10050000DC002042DD48006840F00100DB49086063
:1005100008464068DA490840D849486008460068FB
:10052000D8490840D54908600846006820F4802072
:1005300008600846406820F4FE0048604FF41F0041
:1005400088607047CD49096821F48031CB4A116039
:100550001146096821F480211160B0F5803F03D075
:10056000B0F5802F0ED106E0C449096841F480310E
:10057000C24A116007E0C149096841F4A021BF4A9D
:10058000116000E000BF00BF704710B501460022B7
:10059000002300204A11012A02D1B84C236806E04A
:1005A000022A02D1B54C236A01E0B44C636A01F01F
:1005B0001F02012494401C4201D0012000E00020D1
:1005C00010BD38B5002000900024002500BF312068
:1005D000FFF7DBFF05460098401C00900098B0F53F
:1005E000A06F01D0002DF2D03120FFF7CEFF08B16F
:1005F000012400E00024204638BD014600209F4A27
:10060000106820F0F80040EAC100106070479E4971
:100610000860704702460020984B586820F47C1010
:1006200042EA01031843954B5860704796490866A3
:10063000704701460020914A506820F003000843AB
:10064000506070478D48406800F00C0070470146CC
:1006500000208A4A506820F0F0000843506070473C
:1006600001460020854A506820F4E060084350604D
:10067000704701460020814A506820F4605040EAEB
:10068000C1005060704729B17C4A527A02437B4BCB
:100690005A7204E0794A527A8243784B5A72704710
:1006A0007A490860704701460020744A506820F477
:1006B00040400843506070470021754A11706F4AEE
:1006C00082F82010012802D0042808D103E001217B
:1006D0006F4A117004E005216D4A117000E000BFFF
:1006E00000BF70476B49086070476449096A01435D
:1006F000624A11627047674944390860704730B5F3
:1007000000210022002400235C4D6D6805F00C01DF
:1007100021B1042905D0082923D105E05E4D0560EB
:1007200022E05D4D05601FE0544D6D6805F47012C8
:10073000524D6D6805F48034022505EB92421CB9D8
:10074000564D554305600BE04C4D6D6815F4003F68
:1007500003D0524D5543056002E04F4D55430560AF
:1007600002E04D4D056000BF00BF444D6D6805F0CF
:10077000F00109094A4D6B5C0568DD4045603F4D5D
:100780006D6805F4E061090A454D6B5C4568DD4024
:1007900085603A4D6D6805F46051C90A404D6B5C47
:1007A0004568DD40C560354D6D6805F44041890BF5
:1007B0003C4D6B5CC568B5FBF3F5056130BD29B1F7
:1007C0002E4A526902432D4B5A6104E02B4A52696A
:1007D00082432A4B5A61704729B1284A92690243E1
:1007E000264B9A6104E0254A92698243234B9A6121
:1007F000704729B1214AD2690243204BDA6104E0F3
:100800001E4AD26982431D4BDA61704729B11B4AE7
:10081000D2680243194BDA6004E0184AD268824376
:10082000164BDA60704729B1144A12690243134B20
:100830001A6104E0114A12698243104B1A61704731
:1008400014494039086070470F49C86470470B4924
:10085000C87170470948406A40F080700749486293
:10086000704701460020054A92680A4201D00120E3
:1008700000E0002070470149887270470010024074
:100880000000FFF8FFFFF6FE00004242D80042429F
:10089000201002408004424200127A0000093D000C
:1008A000000000201000002001460020FD4A1068D2
:1008B00000F03800084310607047FA49096821F0D9
:1008C0000801F84A11601146096801431160704738
:1008D000F449096821F01001F24A116011460968D3
:1008E000014311607047F048EE494860EF484860A6
:1008F0007047EC48006940F08000EA4908617047A1
:100900000420E849C96811F0010F01D001200EE070
:10091000E449C96811F0040F01D0022007E0E14961
:10092000C96811F0100F01D0032000E004207047C7
:1009300008B500200090FF20009002E00098401EC3
:10094000009000980028F9D108BD70B50446042530
:10095000FFF7D6FF054605E0FFF7EAFFFFF7D0FFF8
:100960000546641E012D01D1002CF5D104B90525E1
:10097000284670BD70B50546042440F6FF70FFF7A9
:10098000E4FF0446042C19D1C648006940F0020077
:10099000C449086108464561006940F040000861AB
:1009A00040F6FF70FFF7D1FF0446052C06D0BD4886
:1009B000006941F6FD710840BA490861204670BDE2
:1009C00010B5042440F6FF70FFF7BFFF0446042C67
:1009D00018D1B448006940F00400B24908610846E3
:1009E000006940F04000086140F6FF70FFF7ADFF7E
:1009F0000446052C06D0AB48006941F6FB7108405F
:100A0000A8490861204610BD10B5042440F6FF70C7
:100A1000FFF79BFF0446042C3BD1A348A149886003
:100A2000A24888600846006940F020000861084636
:100A3000006940F04000086140F6FF70FFF785FF55
:100A40000446042C1CD19748006941F6DF71084028
:100A5000944908610846006940F010000861A5202B
:100A6000934908800F20FFF770FF0446052C10D033
:100A70008C48006941F6EF7108408A49086108E036
:100A8000052C06D08748006941F6EF71084085497A
:100A90000861204610BDF8B506460D460424002026
:100AA00000900F20FFF751FF0446042C28D17D4809
:100AB000006940F001007B49086135800F20FFF795
:100AC00044FF0446042C12D1B01C0090280C00995D
:100AD00008800F20FFF739FF0446052C10D071481D
:100AE000006941F6FE7108406E49086108E0052C76
:100AF00006D06C48006941F6FE71084069490861FA
:100B00002046F8BD70B505460E4604240F20FFF7B9
:100B10001CFF0446042C13D16248006940F0010018
:100B2000604908612E800F20FFF70FFF0446052C57
:100B300006D05C48006941F6FE71084059490861D9
:100B4000204670BD70B505460E4604240F20FFF701
:100B5000FCFE0446042C17D1534852498860534880
:100B600088600846006940F0100008612E800F2060
:100B7000FFF7EBFE0446052C06D04A48006941F613
:100B8000EF71084047490861204670BD2DE9F047E4
:100B900004464FF6FF763746B046B1460425E44397
:100BA000E6B2C4F30727C4F307484FEA14690F20DD
:100BB000FFF7CBFE0546042D40D13B4839498860FC
:100BC0003A4888600846006940F010000861FF2E2E
:100BD00006D03748083006800F20FFF7B6FE0546DE
:100BE000042D08D1FF2F06D031480A3007800F208E
:100BF000FFF7ABFE0546042D0AD1B8F1FF0F07D071
:100C00002B480C30A0F800800F20FFF79EFE054611
:100C1000042D0AD1B9F1FF0F07D025480E30A0F8F6
:100C200000900F20FFF791FE0546052D06D01D48C8
:100C3000006941F6EF7108401A4908612846BDE88D
:100C4000F08770B50546042440F6FF70FFF77DFE7F
:100C50000446042C49D1144812498860134888601E
:100C60000846006940F0200008610846006940F02D
:100C70004000086140F6FF70FFF767FE0446042C51
:100C80002AD10848006941F6DF710840054908612A
:100C90000846006940F0100008615DB10020044979
:100CA00008800AE00020024023016745AB89EFCDB0
:100CB00000F8FF1FA5204549088040F6FF70FFF7A8
:100CC00044FE0446052C10D04148006941F6EF71FE
:100CD00008403F49086108E0052C06D03C480069FF
:100CE00041F6DF7108403A490861204670BD2DE9A0
:100CF000F04105460E4617460424364834498860BC
:100D0000354888600F20FFF720FE0446042C19D1D7
:100D10002F48006940F010002D49086147F0F800A5
:100D2000304328432949891C08800F20FFF70DFE16
:100D30000446052C06D02648006941F6EF710840AC
:100D4000234908612046BDE8F0812148C069800838
:100D500070471F48006A704700201D49C96911F09B
:100D6000020F01D0012000E0002070470020184948
:100D7000096811F0200F01D0012000E00020704729
:100D800029B1134A12690243114B1A6104E0104A57
:100D9000126982430E4B1A617047014600200129F7
:100DA00008D10B4AD26912F0010F01D0012008E0EE
:100DB000002006E0064AD2680A4201D0012000E085
:100DC000002070470249C8607047000000F8FF1F0C
:100DD0000020024023016745AB89EFCD70470B48E7
:100DE00080470B4981F308880A480047FEE7FEE781
:100DF000FEE7FEE7FEE7FEE7FEE7FEE7FEE7FEE7CB
:100E000005480649064A074B70470000DD0D0008FB
:100E100078060020310100087800002078060020C4
:100E200078020020780200207047704700BFFEE77C
:100E300000BFFEE700BFFEE770477047704770478E
:100E400070477047704770477047704770477047EA
:100E500070477047704770477047704770477047DA
:100E600070477047704770477047704770477047CA
:100E700070477047704770477047704770477047BA
:100E800070477047704770477047704770477047AA
:100E9000704770477047704770477047704770479A
:100EA000704770477047704770477047704770478A
:100EB000704770477047704708B501216020FFF701
:100EC0008BFC4FF4E060ADF8000010208DF80300BB
:100ED00002208DF8020069464948FFF7D7F94FF420
:100EE0004040ADF8000010208DF8030002208DF87E
:100EF000020069464348FFF7C9F94FF40050ADF8C6
:100F0000000048208DF8030002208DF80200694699
:100F10003C48FFF7BBF94FF48050ADF800001020BB
:100F20008DF8030002208DF8020069463548FFF76E
:100F3000ADF908BD10B5FFF7E5FA4FF48030FFF7C3
:100F400001FBFFF73EFB3049087008460078012896
:100F500005D14FF4E0110004FFF75CFB0DE0012028
:100F6000FFF755FB00BF2120FFF70FFB0028FAD049
:100F70004FF460110020FFF74DFB1020FFF7A8FC95
:100F80000220FFF791FC0020FFF761FB0020FFF734
:100F900070FB4FF48060FFF763FB0120FFF746FB17
:100FA00000BF3920FFF7F1FA0028FAD00220FFF73E
:100FB00040FB00BFFFF746FB0828FBD1012144F2AC
:100FC0000500FFF709FC10BDFFF7B4FFFFF774FF42
:100FD00013E000F096F80D490D4800F008F900F014
:100FE00044F941F2883000F015F800F08AF800F07A
:100FF00020F900F03AF900BFFEE7EAE77047000089
:101000000014014000180140140000207A25000857
:10101000FA1200080022002100BF06E0002200E0D2
:10102000521CB2F5205FFBD3491C8142F6D37047B6
:1010300070B5044625464FF400719148FFF7D3F987
:1010400000261BE015F0800F05D04FF480618C481E
:10105000FFF7C7F904E04FF480618948FFF7C3F94F
:101060004FF400718648FFF7BCF94FF400718448D3
:10107000FFF7B9F96806050E701CC6B2082EE1DB51
:1010800070BD10B506E04FF400517E48FFF78FF9B0
:1010900000B900E0F7E700BF10BD10B504464FF4FB
:1010A00080717748FFF79DF94FF480717448FFF71E
:1010B0009AF94FF400417348FFF795F92046FFF77E
:1010C000B7FF4FF480716E48FFF78BF910BD10B574
:1010D00004464FF480716A48FFF783F94FF480713A
:1010E0006748FFF780F94FF400416648FFF779F948
:1010F0002046FFF79DFF4FF480716148FFF771F9BB
:1011000010BD10B54FF480415E48FFF76CF96420C4
:10111000FFF780FF4FF480415A48FFF762F96420DF
:10112000FFF778FFFFF7ADFF1220FFF7B6FFFFF7DD
:10113000A8FF0120FFF7B1FF2720FFF7C8FF01201C
:10114000FFF7C5FF0020FFF7C2FF1120FFF7A5FF43
:101150000120FFF7BCFF4420FFF79FFF0020FFF7AF
:10116000B6FF0F20FFF7B3FF4520FFF796FF2720BC
:10117000FFF7ADFF0120FFF7AAFF0020FFF7A7FF51
:101180000020FFF7A4FF3C20FFF787FF0520FFF7B3
:101190009EFF1820FFF781FF8020FFF798FF212096
:1011A000FFF77BFF0020FFF792FF8020FFF78FFF04
:1011B0004E20FFF772FF0020FFF789FF4F20FFF757
:1011C0006CFF2720FFF783FF0120FFF780FFFFF769
:1011D00058FF10BD10B52220FFF75FFFF720FFF783
:1011E00076FF2020FFF759FFFFF74BFF10BD70B5CA
:1011F00005460E462420FFF750FF002404E028781F
:10120000FFF765FF6D1C641CB4F5945FF7D32620CF
:10121000FFF743FF002406E03178C943C8B2FFF767
:1012200056FF761C641CB4F5945FF5D3FFF7D2FF2C
:1012300070BD10B52420FFF730FF002403E0FF202D
:10124000FFF745FF641CB4F5945FF8D32620FFF741
:1012500024FF002403E00020FFF739FF641CB4F5ED
:10126000945FF8D3FFF7B6FF10BD10B51020FFF75D
:1012700014FF0120FFF72BFF6420FFF7CBFE10BD0A
:1012800000140140001801407047704770477546D0
:1012900000F028F8AE4605006946534620F00700E6
:1012A000854618B020B5FFF7ABFDBDE820404FF0F4
:1012B00000064FF000074FF000084FF0000B21F040
:1012C0000701AC46ACE8C009ACE8C009ACE8C0090D
:1012D000ACE8C0098D4670470446AFF30080204655
:1012E000FEF76DFF004870471800002001491820E4
:1012F000ABBEFEE7260002007047FFFFFFFFFFFFC7
:10130000FFF7FFFFFFFFFFFFFFFFFFFFFFFFFFFFF5
:10131000FFF7FFFFFFFFFFFFFFFFFFFFFFFFFFFFE5
:10132000FFF7FFFFFFFFFFFFFFFFFFFFFFFFFFFFD5
:10133000FFF7FFFFFFFFFFFFFFFFFFFFFFFFFFFFC5
:10134000FFF7FFFFFFFFFFFFFFFFFFFFFFFFFFFFB5
:10135000FFF7FFFFFFFFFFFFFFFFFFFFFFFFFFFFA5
:10136000FFF7FFFFFFFFFFFFFFFFFFFFFFFFFFFF95
:10137000FFF7FFFFFFFFFFFFFFFFFFFFFFFFFFFF85
:10138000FFF7FFFFFFFFFFFFFFFFFFFFFFFFFFFF75
:10139000FFF7FFFFFFFFFFFFFFFFFFFFFFFFFFFF65
:1013A000FFF7FFFFFFFFFFFFFFFFFFFFFFFFFFFF55
:1013B000FFF7FFFFFFFFFFFFFFFFFFFFFFFFFFFF45
:1013C000FFF7FFFFFFFFFFFFFFFFFFFFFFFFFFFF35
:1013D000FFF7FFFFFFFFFFFFFFFFFFFFFFFFFFFF25
:1013E000FFF7FFFFFFFFFFFFFFFFFFC00000000050
:1013F0000FF7FFFFFFFFFFFFFFFFFFC00000000030
:101400000FF7FFFFFFFFFFFFFFFFFFC0000000001F
:101410000FF7FFFFFFFFFFFFFFFFFFC0000000000F
:101420000FF7FFFFFFFFFFFFFFFFFFC000000000FF
:101430000FF7FFFFFFFFFFFFFFFFFFC000000000EF
:101440000FF7FFFFFFFFFFFFFFFFFFC000000000DF
:101450000FF7FFFFFFFFFFFFFFFFFFC000000000CF
:101460000FF7FFFFFFFFFFFFFFFFFFC000000000BF
:101470000FF7FFFFFFFFFFFFFFFFFFC000000000AF
:101480000FF7FFFFFFFFFFFFFFFFFFC001FFFFF8A8
:101490000FF7FFFFFFFC1FFFFFFFFFC001FFFFF87B
:1014A0000FF7FFFFFFF1C7FFFFFFFFC001FFFFF8CE
:1014B0000FF7FFFFFFEFFBFFFFFFFFC001FFFFF88C
:1014C0000FF7FFFFFFDFFDFFFFFFFFC001FFFFF88A
:1014D0000FF7FFFFFFBFFEFFFFFFFFC001FFFFF899
:1014E0000FF7FFFFFFBFFEFFFFFFFFC0000000F888
:1014F0000FF7FFFFFF3FFF7FFFFFFFC0000000F877
:101500000FF7FFFFFF7FFF7FFFFFFFC0000000F826
:101510000FF7FFFFFF7FFF7FFFFFFFC0000000F816
:101520000FF7FFFFFF7FFF7FFFFFFFC0000000F806
:101530000FF7FFFFFF3FFF7FFFFFFFC0FFFFF0F848
:101540000FF7FFFFFFBFFEFFFFFFFFC0FFFFF0F839
:101550000FF7FFFFFFBFFEFFFFFFFFC0FFFFF0F829
:101560000FF7FFFFFFDFFDFFFFFFFFC0FFFFF0F8FA
:101570000FF7FFFFFFEFF9FFFFFFFFC0FFFFF0F8DE
:101580000FF7FFFFFFF3E7FFFFFFFFC0F801F0F8E1
:101590000FF7FFFFFFFC1FFFFFFFFFC0F801F0F890
:1015A0000FF7FFFFFFFFFFFFFFFFFFC0F801F0F89D
:1015B0000FF7FFFFFFFFFFFFFFFFFFC0F801F0F88D
:1015C0000FF7FFFFFFFFFFFFFFFFFFC0F801F0F87D
:1015D0000FF7FFFFFFFFFFFFFFFFFFC0F801F00065
:1015E0000FF7FFFFFFFFFFFFFFFFFFC0F801F00055
:1015F0000FF7FFFFFFFFFFFFFFFFFFC0F801F00045
:101600000FF7FFFFFFFFFFFFFFFFFFC0F801F00034
:101610000FF7FFFFFFFFFFFFFFFFFFC0F801F00024
:101620000FF7FFFFFFFFFFFFFFFFFFC001F000F814
:101630000FF7FFFFFFFFFFFFFFFFFFC001F000F804
:101640000FF7FFFFFFFFFFFFFFFFFFC001F000F8F4
:101650000FF7FFFFFFFFFFFFFFFFFFC001F000F8E4
:101660000FF7FFFFFFFFFFFFFFFFFFC001F000F8D4
:101670000FF7FFFFFFFFFFFFFFFFFFC001F000F8C4
:101680000FF7FFFFFFFFFFFFFFFFFFC001F000F8B4
:101690000FF7FFFFFFFFFFFFFFFFFFC001F000F8A4
:1016A0000FF7FFFFFFFFFFFFFFFFFFC001F000F894
:1016B0000FF7FFFFFFFFFFFFFFFFFFC001F000F884
:1016C0000FF7FFFFFFFFFFFFFFFFFFC001F000F874
:1016D0000FF7FFFFFFFFFFFFFFFFFFC001FFFFF856
:1016E0000FF7FFFFFFFFFFFFFFFFFFC001FFFFF846
:1016F0000FF7FFFFFFFFFFFFFFFFFFC001FFFFF836
:101700000FF7FFFFFFFFFFFFFFFFFFC001FFFFF825
:101710000FF7FFFFFFF1FFFFFFFFFFC001FFFFF823
:101720000FF7FFFFFFC67FFFFFFFFFC001FFFFF8BE
:101730000FF7FFFFF81FBFFFFFFFFFC00000000013
:101740000FF7FFFFE3FFDFFFFFFFFFC00000000018
:101750000FF7FFFFCFFFDFFFFFFFFFC0000000001C
:101760000FF7FFFFDFFFC7FFFFFFFFC00000000014
:101770000FF7FFFF9FFFF3FFFFFFFFC00000000018
:101780000FF7FFFFBFFFFDFFFFFFFFC000000000DE
:101790000FF7FFFFBFFFFDFFFFFFFFC000000000CE
:1017A0000FF7FFFF9FFFFDFFFFFFFFC000000000DE
:1017B0000FF7FFFFDFFFFEFE1FFFFFC0000000006E
:1017C0000FF7FFFF1FFFFEF00FFFFFFFFFFFFFFF01
:1017D000FFF7FFFE7FFFFEC003FFFFFFFFFFFFFFDE
:1017E000FFF7FFFEFFFFFC0001FFFFFFFFFFFFFF12
:1017F000FFF7FFFCFFFFFC0001FFFFFFFFFFFFFF04
:10180000FFF7FFFDFFFFF00000FFFFFFFFFFFFFFFF
:10181000FFF7FFFDFFFFC00000FFFFFFFFFFFFFF1F
:10182000FFF7FFFDFFFF000000FFFFFFFFFFFFFFCF
:10183000FFF7FFFDFFFF800000FFFFFFFFFFFFFF3F
:10184000FFF7FFFDFFFFC00000FFFFFFFFFFFFFFEF
:10185000FFF7FFFDFFFFF00001FFFFFFFFFFFFFFAE
:10186000FFF7FFFDFFFFF80001FFFFFFFFFFFFFF96
:10187000FFF7FFFCFFFFFE0003FFFFFFFFFFFFFF7F
:10188000FFF7FFFEFFFFFF8003FFFFFFFFFFFFFFEC
:10189000FFF7FFFCFFFFFFB00FFFFFFFFFFFFFFFA2
:1018A000FFF7FFF9FFFFFF7E3FFFFFFFFFFFFFFF97
:1018B000FFF7FFF3FFFFFE7FFFFFFFFFFFFFFFFFCD
:1018C000FFF7FFF7FFF3FEFFFFFF0000000000003F
:1018D0000007FFF7FFE03F7FFFFFFFFFFFFFFFFF76
:1018E000FFF7FFF7FFE001BFFFFFFFFFFFFFFFFF75
:1018F000FFF7FFF7FFC0003FFFFFFFFFFFFFFFFF06
:10190000FFF7FFF7FFC0001FFFFFFFFFFFFFFFFF15
:10191000FFF7FFF3FFFC001FFFFFFFFFFFFFFFFFCD
:10192000FFF7FFFBFFFF801FFFFFFFFFFFFFFFFF32
:10193000FFF7FFF9FFFFFE1FFFFFFFFFFFFFFFFFA6
:10194000FFF7FFFDFFFFFE1FFFFFFFFFFFFFFFFF92
:10195000FFF7FFFE7FFFFC3FFFFFFFFFFFFFFFFFE3
:10196000FFF7FFFF7FFFFC3FFFFFFFFFFFFFFFFFD2
:10197000FFF7FFFF7FFFFC7FFFFFFFFFFFFFFFFF82
:10198000FFF7FFFF7FFFF87FFFFFFFFFFFFFFFFF76
:10199000FFF7FFFF7FFFF803FFFFFFFFFFFFFFFFE2
:1019A000FFF7FFFF7FFFF8001FFFFFFFFFFFFFFFB5
:1019B000FFF7FFFF7FFFF8001FFFFFFFFFFFFFFFA5
:1019C000FFF7FFFF7FFFF8001FFFFFFFFFFFFFFF95
:1019D000FFF7FFFF7FFFFCFE3FFFFFFFFFFFFFFF63
:1019E000FFF7FFFFBFFFFDFE3FFFFFFE000000000F
:1019F0000FF7FFFFC7FFFDFE3FFFFFFE00000000E7
:101A00000FF7FFFFF0FFF9FE3FFFFFFE1FFFFFFF95
:101A10000FF7FFFFFE7E03FE3FFFFFFE1FFFFFFEEF
:101A20000FF7FFFFFF7EFFFE0FFFFFFE0FFFFFFE22
:101A30004FF7FFFFFF38FFFE01FFFFFE47FFFFFCF0
:101A40004FF7FFFFFF83FFFFFC3FFFFE63FFFFF841
:101A5000CFF7FFFFFFFFFFFFFFFFFFFE71FFFFF16B
:101A6000CFF7FFFFFFFFFFFFFFFFFFFE78FFFFE362
:101A7000CFF7FFFFFFFFFFFFFFFFFFFE7C7FFFC7EA
:101A8000CFF7FFFFFFFFFFFFFFFFFFFE7E3FFF8F50
:101A9000CFF7FFFFFFFFFFFFFFFFFFFE7F1FFF1FCF
:101AA000CFF7FFFFFFFFFFFFFFFFFFFE7F8FFE3F30
:101AB000CFF7FFFFFFFFFFFFFFFFFFFE7FC7FC7FAA
:101AC000CFF7FFFFFFFFFFFFFFFFFFFE7FE3F8FF02
:101AD000CFF7FFFFFFFFFFFFFFFFFFFE7FF1F1FFEB
:101AE000CFF7FFFFFFFFFFFFFFFFFFFE7FF8E3FFE2
:101AF000CFF7FFFFFFFFFFFFFFFFFFFE7FFC47FF6A
:101B0000CFF7FFFFFFFFFFFFFFFFFFFE7FFE0FFF8F
:101B1000CFF7FFFFFFFFFFFFFFFFFFFE7FFF1FFF6E
:101B2000CFF7FFFFFFFFFFFFFFFFFFFE7FFF8FFFEE
:101B3000CFF7FFFFFFFFFFFFFFFFFFFE7FFFC7FFA6
:101B4000CFF7FFFFFFFFFFFFFFFFFFFE7FFFE3FF7A
:101B5000CFF7FFFFFFFFFFFFFFFFFFFE7FFFF1FF5C
:101B6000CFF7FFFFFFFFFFFFFFFFFFFE7FFFF9FF44
:101B7000CFF7FFFFFFFFFFFFFFFFFFFE7FFFFCFF31
:101B8000CFF7FFFFFFFFFFFFFFFFFFFE7FFFFCFF21
:101B9000CFF7FFFFFFFFFFFFFFFFFFFE7FFFFCFF11
:101BA000CFF7FFFFFFFFFFFFFFFFFFFE7FFFF9FF04
:101BB000CFF7FFFFFFFFFFFFFFFFFFFE7FFFF1FFFC
:101BC000CFF7FFFFFFFFFFFFFFFFFFFE7FFFE3FFFA
:101BD000CFF7FFFFFFFFFFFFFFFFFFFE7FFFC7FF06
:101BE000CFF7FFFFFFFFFFFFFFFFFFFE7FFF8FFF2E
:101BF000CFF7FFFFFFFFFFFFFFFFFFFE7FFF1FFF8E
:101C0000CFF7FFFFFFFFFFFFFFFFFFFE7FFE0FFF8E
:101C1000CFF7FFFFFFFFFFFFFFFFFFFE7FFC47FF48
:101C2000CFF7FFFFFFFFFFFFFFFFFFFE7FF8E3FFA0
:101C3000CFF7FFFFFFFFFFFFFFFFFFFE7FF1F1FF89
:101C4000CFF7FFFFFFFFFFFFFFFFFFFE7FE3F8FF80
:101C5000CFF7FFFFFFFFFFFFFFFFFFFE7FC7FC7F08
:101C6000CFF7FFFFFFFFFFFFFFFFFFFE7F8FFE3F6E
:101C7000CFF7FFFFFFFFFFFFFFFFFFFE7F1FFF1FED
:101C8000CFF7FFFFFFFFFFFFFFFFFFFE7E3FFF8F4E
:101C9000CFF7FFFFFFFFFFFFFFFFFFFE7C7FFFC7C8
:101CA000CFF7FFFFFFFFFFFFFFFFFFFE78FFFFE320
:101CB000CFF7FFFFFFFFFFFFFFFFFFFE71FFFFF109
:101CC000CFF7FFFFFFFFFFFFFFFFFFFE63FFFFF800
:101CD000CFF7FFFFFFFFFFFFFFFFFFFE47FFFFFC08
:101CE0004FF7FFFFFFFFFFFFFFFFFFFE0FFFFFFEAE
:101CF0000FF7FFFFFFFFFFFFFFFFFFFE1FFFFFFFCD
:101D00000FF7FFFFFFFFFFFFFFFFFFFE1FFFFFFFBC
:101D10008FF7FFFFFFFFFFFFFFFFFFFE0000000048
:101D20000FF7FFFFFFFFFFFFFFFFFFFE00000000B8
:101D30000FF7FFFFFFFFFFFFFFFFFFFFFFFFFFFFAB
:101D4000FFF7FFFFFFFFFFFFFFFFFFFFFFFFFFFFAB
:101D5000FFF7FFFFFFFFFFFFFFFFFFFFFFFFFFFF9B
:101D6000FFF7FFFFFFFFFFFFFFFFFFFFFFFFFFFF8B
:101D7000FFF7FFFFFFFFFFFFFFFFFFFFFFFFFFFF7B
:101D8000FFF7FFFFFFFFFFFFFFFFFFFFFFFFFFFF6B
:101D9000FFF7FFFFFFFFFFFFFFFFFFFFFFFFFFFF5B
:101DA000FFF7FFFFFFFFFFFFFFFFFFFFFFFFFFFF4B
:101DB000FFF7FFFFFFFFFFFFFFFFFFFFFFFFFFFF3B
:101DC000FFF7FFFFFFFFFFFFFFFFFFFFFFFFFFFF2B
:101DD000FFF7FFFFFFFFFFFFFFFFFFFFFFFFFFFF1B
:101DE000FFF7FFFFFFFFFFFFFFFFFFFFFFFFFFFF0B
:101DF000FFF7FFFFFFFFFFFFFFFFFFFFFFFFFFFFFB
:101E0000FFF7FFFFFFFFFFFFFFFFFFFFFFFFFFFFEA
:101E1000FFF7FFFFFFFFFFFFFFFFFFFFFFFFFFFFDA
:101E2000FFF7FFFFFFFFFFFFFFFFFFFFFFFFFFFFCA
:101E3000FFF7FFFFFFFFFFFFFFFF000000000000B4
:101E400000000000000000000000FFFFFFFFFFFF98
:101E5000FFF7FFFFFFFFFFFFFFFFFFFFFFFFFFFF9A
:101E6000FFF7FFFFFFFFFFFFFFFFFFFFFFFFFFFF8A
:101E7000FFF7FFFFFFFFFFFFFFFFFFFFFFFFFFFF7A
:101E8000FFF7FFFFFFFFFFFFFFFFFFFFFFFFFFFF6A
:101E9000FFF7FFFFFFFFFFFFFFFFFFFFFFFFFFFF5A
:101EA000FFF7FFFFFFFFFFFFFFFFFFFFFFFFFFFF4A
:101EB000FFF7FFFFFFFFFFFFFFFFFFFFFFFFFFFF3A
:101EC000FFF7FFFFFFFFFFFFFFFFFFFFFFFFFFFF2A
:101ED000FFF7FFFFFFFFFFFFFFFFFFFFFFFFFFFF1A
:101EE000FFF7FFFFFFFFFFFFFFFFFFFFFFFFFFFF0A
:101EF000FFF7FFFFFFFFFFFFFFFFFFFFFFF03FFFC9
:101F0000FFF7FFFFFFFFFFFFFFFFFFFFFF8003FF64
:101F1000FFF7FFFFFFFFFFFFFFFFFFFFFE1FF07F49
:101F2000FFF7FFFFFFFFFFFFFFFFFFFFF8FFFE3F91
:101F3000FFF7FFFFFFFFFFFFFFFFFFFFF1FFFF8F37
:101F4000FFF7FFFFFFFFFFFFFFFFFFFFC7FFFFCF11
:101F5000FFF7FFFFFFFFFE7FFE7FFFFF8FFFFFE327
:101F6000FFF7FFFFFFFFFE7FFE7FFFFF1FFFFDF379
:101F7000FFF7FFFFFFFFFE3FFC7FFFFE7FFFF3F950
:101F8000FFF7FFFFFFFFFE00007FFFFE7FFFE3FC88
:101F9000FFF7FFFFFFFFFE00007FFFFCFFFF87FE54
:101FA000FFF7FFFFFFFFFE03FC7FFFFCFFFE07FEC6
:101FB0007FF7FFFFFFFFFE00FE7FFFF9FFF80FFE38
:101FC0007FF7FFFFFFFFFF801E7FFFF9FFF01FFF7E
:101FD0003FF7FFFFFFFFFFE007FFFFF9FFC01FFF15
:101FE0003FF7FF3FFFF3FFFC01FFFFF9FF003FFF5B
:101FF000BFF7FF3FFFF3FFFF007FFFF3FC003FFF52
:10200000BFF7FF3FFFE3FFFFE07FFFF3F8007FFF35
:102010009FF7FF000003FFFF01FFFFF3E000FFFF5A
:102020009FF7FE000003FFFC07FFFFF3C000FFFF68
:102030009FF7FE000003FFF03E7FFFF3E0007FFF0D
:102040009FF7FE000003FF80FE7FFFF3F8007FFF95
:102050009FF7FFFFFFE3FE03FC7FFFFBFC003FFF5A
:102060009FF7FFFFFFF3FE00007FFFFBFF003FFF36
:102070003FF7FFFFFFF3FE00007FFFF9FFC01FFFE8
:102080003FF7FFFFFFFFFE00007FFFF9FFE00FFFBC
:102090003FF7FFFFFFFFFE3FFC7FFFFDFFFC0FFF51
:1020A0007FF7FFFFFFFFFE7FFE7FFFFCFFFE07FEC7
:1020B0007FF7FFFFFFF3FE7FFE7FFFFEFFFF87FC42
:1020C000FFF7FFC0FFE3FFFFFFFFFFFE7FFFE3FC23
:1020D000FFF7FF807FC3FFFF03FFFFFF3FFFF3F921
:1020E000FFF7FF003F83FFFE01FFFFFF9FFFFDF3B0
:1020F000FFF7FF1C3F03FFFC00FFFFFF9FFFFFF305
:10210000FFF7FE3E3E03FFF8787FFFFFCFFFFFCFD4
:10211000FFF7FE7F3C43FFF8FC7FFFFFE3FFFF0F6D
:10212000FFF7FE7F30C3FFF9FE7FFFFFF8FFFE3FA2
:10213000FFF7FE7FE1C3FFF9FE7FFFFFFC1FF0FF0B
:10214000FFF7FE3F81C3FFF8FC7FFFFFFF8003FF27
:10215000FFF7FE1E03C3FFF8787FFFFFFFF03FFF8E
:10216000FFF7FF0007C3FFFC00FFFFFFFFFFFFFFBC
:10217000FFF7FF000F83FFFE01FFFFFFFFFFFFFFE1
:10218000FFF7FF803F03FFFF03FFFFFFFFFFFFFF9E
:10219000FFF7FFE07F0FFFFFFFFFFFFFFFFFFFFFE6
:1021A000FFF7FFFFFFFFFFFCFE7FFFFFFFFFFFFFCB
:1021B000FFF7FFFFFFFFFFFCFE7FFFFFFFFFFFFFBB
:1021C000FFF7FFFFFFFFFFF8007FFFFFFFFFFFFFAD
:1021D000FFF7FFFFFFFFFFF8007FFFFFFFFFFFFF9D
:1021E000FFF7FFFE1F87FFF8007FFFFFFFFFFFFFE6
:1021F000FFF7FFFE0F83FFFCFE7FFFFFFFFFFFFFE8
:10220000FFF7FFFE0F83FFF8FE7FFFFFFFFFFFFFDB
:10221000FFF7FFFE1F87FFF9FE7FFFFFFFFFFFFFB6
:10222000FFF7FFFFFFFFFFF8FE7FFFFFFFFFFFFF4E
:10223000FFF7FFFFFFFFFFF8007FFFFFFFFFFFFF3C
:10224000FFF7FFFFFFFFFFF8007FFFFFFFFFFFFF2C
:10225000FFF7FFFFFFF3FFFC007FFFFFFFE00FFF33
:10226000FFF7FFC0FFE3FFFFFE7FFFFFFF0003FF5D
:10227000FFF7FF807FC3FFFFFE7FFFFFFE1FF07FA2
:10228000FFF7FF003F83FFFF03FFFFFFF8FFFE3F65
:10229000FFF7FF1C3F03FFFC00FFFFFFE3FFFF9F73
:1022A000FFF7FE3E3E03FFFC00FFFFFFC7FFFFC737
:1022B000FFF7FE7F3C43FFF8787FFFFF8FFFFFE7CC
:1022C000FFF7FE7F30C3FFF8FC7FFFFF3F7FFFF388
:1022D000FFF7FE7FE1C3FFF9FE7FFFFF3F3FFFF9FE
:1022E000FFF7FE3F81C3FF39FE7FFFFE7F8FFFFCBC
:1022F000FFF7FE1E03C3FF38FC7FFFFCFFC3FFFC9C
:10230000FFF7FF0007C3FE00007FFFFCFFC0FFFEDA
:102310007FF7FF000F83FE00007FFFFDFFE07FFEE1
:102320007FF7FF803F03FE00007FFFF9FFE01FFF04
:102330003FF7FFE07F0FFFFFFC7FFFF9FFF007FF94
:102340003FF7FFFFFFFFFFFFFE7FFFFBFFF003FFF5
:102350009FF7FFFFFC1FFFFFFFFFFFF3FFF800FFEA
:102360009FF7FF87F807FFFC70FFFFF3FFFC003FBC
:102370009FF7FF03F807FFF8607FFFF3FFFC000FF4
:102380009FF7FF03F9C3FFF8607FFFF3FFFE00072D
:102390009FF7FE331FE3FFF8E67FFFF3FFFC000F1C
:1023A0009FF7FE731FF3FFF9C67FFFF3FFFC003FAB
:1023B0009FF7FE7F1FF3FFF8CC7FFFF3FFF8007F4E
:1023C0009FF7FE7F3FF3FFF800FFFFFBFFF801FFE1
:1023D000BFF7FE3E3FE3FFFC007FFFF9FFF007FF82
:1023E0003FF7FE1C1FE3FFFC007FFFF9FFF01FFF1C
:1023F0003FF7FE000787FFFFFE7FFFFDFFE03FFF87
:102400007FF7FF008007FFFFFE7FFFFCFFC0FFFE9E
:102410007FF7FF80800FFFF9FFFFFFFEFFC3FFFC88
:10242000FFF7FFC1C01FFFF8FFE3FFFE7F8FFFFC38
:10243000FFF7FFFFF03FFFF81FE3FFFF3F1FFFF92C
:10244000FFF7FFFFFFFFFFF801E3FFFF1F7FFFF133
:10245000FFF7FFFFFFFFFFF80003FFFF9FFFFFE312
:10246000FFF7FFFFFFFFFFF9800FFFFFC7FFFFE749
:10247000FFF7FFFFFFFFFFFFE07FFFFFF3FFFF0F0F
:10248000FFF7FFFFFFFFFFF903FFFFFFF8FFFE1F4E
:10249000FFF7FFFFFFFFFFF80FFFFFFFFC1FF83FF5
:1024A000FFF7FFFFFFFFFFF87FFFFFFFFF8001FF48
:1024B000FFF7FFFFFFFFFFF9FFFFFFFFFFE00FFF49
:1024C000FFF7FFFFFFFFFFFFFFFFFFFFFFFFFFFF24
:1024D000FFF7FFFFFFFFFFFFFFFFFFFFFFFFFFFF14
:1024E000FFF7FFFFFFFFFFFFFFFFFFFFFFFFFFFF04
:1024F000FFF7FFFFFFFFFFFFFFFFFFFFFFFFFFFFF4
:10250000FFF7FFFFFFFFFFFFFFFFFFFFFFFFFFFFE3
:10251000FFF7FFFFFFFFFFFFFFFFFFFFFFFFFFFFD3
:10252000FFF7FFFFFFFFFFFFFFFFFFFFFFFFFFFFC3
:10253000FFF7FFFFFFFFFFFFFFFFFFFFFFFFFFFFB3
:10254000FFF7FFFFFFFFFFFFFFFFFFFFFFFFFFFFA3
:10255000FFF7FFFFFFFFFFFFFFFFFFFFFFFFFFFF93
:10256000FFF7FFFFFFFFFFFFFFFFFFFFFFFFFFFF83
:10257000FFF7FFFFFFFFFFFFFFFFFFFFFFFFFFFF73
:10258000FFF80000000000000000FFFFFFFFFFFF5A
:10259000FFF80000000000000000FFFFFFFFFFFF4A
:1025A000FFF80000000000000000FFFFFFFFFFFF3A
:1025B000FFF80000000000000000FFFFFFFFFFFF2A
:1025C000FFF80000000000000000FFFFFFFFFFFF1A
:1025D000FFF80000000000000000FFFFFFFFFFFF0A
:1025E000FFF80000000000000000FFFFFFFFFFFFFA
:1025F000FFF80000000000000000FFFFFFFFFFFFEA
:10260000FFF80000000000000000FFFFFFFFFFFFD9
:10261000FFF80000000000000000FFFFFFFFFFFFC9
:10262000FFF80000000080000000FFFFFFFFFFFF39
:10263000FFF80000000080000000FFFFFFFFFFFF29
:10264000FFF80000000080000000FFFFFFFFFFFF19
:10265000FFF80000000080000000FFFFFFFFFFFF09
:10266000FFF80000000080000000FFFFFFFFFFFFF9
:10267000FFF80000000080000000FFFFFFFFFFFFE9
:10268000FFF800000001C0000000FFFFFFFFFFFF98
:10269000FFF800000001C0000000FFFFFFFFFFFF88
:1026A000FFF800010001C0004000FFFFFFFFFFFF37
:1026B000FFF80000C001C000C000FFFFFFFFFFFFE8
:1026C000FFF80000E001C0038000FFFFFFFFFFFFF5
:1026D000FFF800007803E00F0000FFFFFFFFFFFF9F
:1026E000FFF800003C03E01E0000FFFFFFFFFFFFBC
:1026F000FFF800001F03E07C0000FFFFFFFFFFFF6B
:10270000FFF800000FC3E1F80000FFFFFFFFFFFF2D
:10271000FFF8000007E3E3F00000FFFFFFFFFFFF0B
:10272000FFF8000003CE39E00000FFFFFFFFFFFFCE
:10273000FFF80000019004C00000FFFFFFFFFFFF53
:10274000FFF80000002002400000FFFFFFFFFFFF36
:10275000FFF80000004001000000FFFFFFFFFFFF47
:10276000FFF80000004001000000FFFFFFFFFFFF37
:10277000FFF800007CC0009F0000FFFFFFFFFFFF8D
:10278000FFF8007FFC80009FFF00FFFFFFFFFFFFBF
:10279000FFF8007FFC80009FFF00FFFFFFFFFFFFAF
:1027A000FFF800007C80009F0000FFFFFFFFFFFF9D
:1027B000FFF8000000C000800000FFFFFFFFFFFFE8
:1027C000FFF80000004001000000FFFFFFFFFFFFD7
:1027D000FFF80000014001400000FFFFFFFFFFFF86
:1027E000FFF8000001A002C00000FFFFFFFFFFFF95
:1027F000FFF8000003D007E00000FFFFFFFFFFFF2E
:10280000FFF8000007EC1BF00000FFFFFFFFFFFFD9
:10281000FFF800000FC3E0F80000FFFFFFFFFFFF1D
:10282000FFF800001F03E07C0000FFFFFFFFFFFF39
:10283000FFF800003C03E01E0000FFFFFFFFFFFF6A
:10284000FFF800007803E00F0000FFFFFFFFFFFF2D
:10285000FFF80000E001C0038000FFFFFFFFFFFF63
:10286000FFF80000C001C000C000FFFFFFFFFFFF36
:10287000FFF800010001C0004000FFFFFFFFFFFF65
:10288000FFF800000001C0000000FFFFFFFFFFFF96
:10289000FFF800000001C0000000FFFFFFFFFFFF86
:1028A000FFF80000000080000000FFFFFFFFFFFFB7
:1028B000FFF80000000080000000FFFFFFFFFFFFA7
:1028C000FFF80000000080000000FFFFFFFFFFFF97
:1028D000FFF80000000080000000FFFFFFFFFFFF87
:1028E000FFF80000000080000000FFFFFFFFFFFF77
:1028F000FFF80000000080000000FFFFFFFFFFFF67
:10290000FFF80000000000000000FFFFFFFFFFFFD6
:10291000FFF80000000000000000FFFFFFFFFFFFC6
:10292000FFF80000000000000000FFFFFFFFFFFFB6
:10293000FFF80000000000000000FFFFFFFFFFFFA6
:10294000FFF80000000000000000FFFFFFFFFFFF96
:10295000FFF80000000000000000FFFFFFFFFFFF86
:10296000FFF80000000000000000FFFFFFFFFFFF76
:10297000FFF80000000000000000FFFFFFFFFFFF66
:10298000FFF80000000000000000FFFFFFFFFFFF56
:10299000FFF80000000E00000000FFFFFFFFFFFF38
:1029A000FFF80000003F80000000FFFFFFFFFFFF77
:1029B000FFF8000007FFC0000000FFFFFFFFFFFF60
:1029C000FFF800001FFFE0000000FFFFFFFFFFFF18
:1029D000FFF800003FFFE0000000FFFFFFFFFFFFE8
:1029E000FFF800003FFFF8000000FFFFFFFFFFFFC0
:1029F000FFF800007FFFFC000000FFFFFFFFFFFF6C
:102A0000FFF800007FFFFE000000FFFFFFFFFFFF59
:102A1000FFF800007FFFFE000000FFFFFFFFFFFF49
:102A2000FFF800007FFFFE000000FFFFFFFFFFFF39
:102A3000FFF800003FFFFF01E000FFFFFFFFFFFF87
:102A4000FFF80000FFFFFF0FF000FFFFFFFFFFFF99
:102A5000FFF80001FFFFFF3FFC00FFFFFFFFFFFF4C
:102A6000FFF80001FFFFFFFFFE00FFFFFFFFFFFF7A
:102A7000FFF80003FFFFFFFFFE00FFFFFFFFFFFF68
:102A8000FFF80003FFFFFFFFFF00FFFFFFFFFFFF57
:102A9000FFF80003FFFFFFFFFF00FFFFFFFFFFFF47
:102AA000FFF80003FFFFFFFFFF00FFFFFFFFFFFF37
:102AB000FFF80003FFFFFFFFFF00FFFFFFFFFFFF27
:102AC000FFF80003FFFFFFFFFF00FFFFFFFFFFFF17
:102AD000FFF80003FFFFFFFFFE00FFFFFFFFFFFF08
:102AE000FFF80003FFFFFFFFFE00FFFFFFFFFFFFF8
:102AF000FFF80003FFFFFFFFFC00FFFFFFFFFFFFEA
:102B0000FFF80001FFFFFFFFFC00FFFFFFFFFFFFDB
:102B1000FFF80003FFFFFFCFF000FFFFFFFFFFFF05
:102B2000FFF80007FFFFFFC1C000FFFFFFFFFFFF2F
:102B3000FFF8000FFFFFFF800000FFFFFFFFFFFF18
:102B4000FFF8000FFFFFFF000000FFFFFFFFFFFF88
:102B5000FFF8000FFFFFFF800000FFFFFFFFFFFFF8
:102B6000FFF8000FFFFFFFC00000FFFFFFFFFFFFA8
:102B7000FFF8000FFFFFFFC00000FFFFFFFFFFFF98
:102B8000FFF8000FFFFFFFE00000FFFFFFFFFFFF68
:102B9000FFF8000FFFFFFFE00000FFFFFFFFFFFF58
:102BA000FFF80007FFFFFFE00000FFFFFFFFFFFF50
:102BB000FFF80007FFFFFFE00000FFFFFFFFFFFF40
:102BC000FFF80003FFFFFFE00000FFFFFFFFFFFF34
:102BD000FFF80001FFFFFFC00000FFFFFFFFFFFF46
:102BE000FFF80000FFFFFFC00000FFFFFFFFFFFF37
:102BF000FFF80000FFFFFF800000FFFFFFFFFFFF67
:102C0000FFF80000FFFFFF800000FFFFFFFFFFFF56
:102C1000FFF80000FFFFFFFC0000FFFFFFFFFFFFCA
:102C2000FFF80000FFFFFFFFE000FFFFFFFFFFFFD7
:102C3000FFF80000FFFFFFFFE000FFFFFFFFFFFFC7
:102C4000FFF80000FFFFFFFFE000FFFFFFFFFFFFB7
:102C5000FFF80000FFFFFF01C000FFFFFFFFFFFFC5
:102C6000FFF800007FFFFF01C000FFFFFFFFFFFF35
:102C7000FFF800003FFFFE01C000FFFFFFFFFFFF66
:102C8000FFF800000FFFFE01C000FFFFE0000000A2
:102C9000FFF8000001FFFC01C000FFFFE0000001A1
:102CA000FFF8000000FF0001F000FFFFF00000014E
:102CB000BFF8000000FF0001FE00FFFFB8000003A6
:102CC000BFF80000007C000003C0FFFF9C0000076D
:102CD0003FF80000000000000000FFFF8E00000E23
:102CE0003FF80000000000000000FFFF8700001C0C
:102CF0003FF80000000000000000FFFF8380003864
:102D00003FF80000000000000000FFFF81C00070DD
:102D10003FF80000000000000000FFFF80E000E03E
:102D20003FF80000000000000000FFFF807001C0BD
:102D30003FF80000000000000000FFFF8038038023
:102D40003FF80000000000000000FFFF801C0700AB
:102D50003FF80000000000000000FFFF800E0E00A2
:102D60003FF80000000000000000FFFF80071C008B
:102D70003FF80000000000000000FFFF8003B800E3
:102D80003FF80000000040000000FFFF8001F0005D
:102D90003FF800000000E0000000FFFF8000E000BE
:102DA0003FF800000000E0000000FFFF800070001E
:102DB0003FF800000000E0000000FFFF8000380046
:102DC0003FF800000010E1000000FFFF80001C0041
:102DD0003FF80000003CE7800000FFFF80000E008D
:102DE0003FF80000003FFF800000FFFF800006006A
:102DF0003FF80000033FFF980000FFFF8000030042
:102E00003FF80000079FFF3C0000FFFF8000030029
:102E10003FF800000787FC3C0000FFFF8000030034
:102E20003FF80000C783F83C6000FFFF8000060009
:102E30003FF80001E780E03CF000FFFF80000E005B
:102E40003FF80001FF80E03FF000FFFF80001C0022
:102E50003FF80001FF80E03FF000FFFF80003800F6
:102E60003FF80000FF80E03FE000FFFF80007000BF
:102E70003FF800003FC0E07F8000FFFF8000E000DF
:102E80003FF800001FF0E1FF0000FFFF8001F000AD
:102E90003FF800007FF8E3FFC000FFFF8003B800A9
:102EA0003FF80000FFFEEFFFE000FFFF80071C007F
:102EB0003FF80000FC7FFFC7E000FFFF800E0E0020
:102EC0003FF80000F03FFF81E000FFFF801C07009B
:102ED0003FF80000600FFE004000FFFF80380380D5
:102EE0003FF800000003F8000000FFFF807001C001
:102EF0003FF80000600FFE006000FFFF80E000E090
:102F00003FF80000F03FFF81E000FFFF81C000704C
:102F10003FF80000FC7FFFC7E000FFFF8380003820
:102F20003FF80000FFFEEFFFE000FFFF8700001CFE
:102F30003FF800007FF8E3FFC000FFFF8E00000EA7
:102F40003FF800001FF0E1FF0000FFFF9C000007BA
:102F50003FF800003FC0E07F8000FFFFB8000003A3
:102F6000BFF800007F80E03FE000FFFFF0000001BD
:102F7000FFF80001FF80E03FF000FFFFE0000000ED
:102F8000FFF80001FF80E03FF000FFFFE0000000DD
:102F90007FF80001E780E03CF000FFFFFFFFFFFF4C
:102FA000FFF80000C783F83C6000FFFFFFFFFFFF52
:102FB000FFF800000787FC3C0000FFFFFFFFFFFF5A
:102FC000FFF80000079FFF3C0000FFFFFFFFFFFF2F
:102FD000FFF80000033FFF980000FFFFFFFFFFFF27
:102FE000FFF80000003FFF800000FFFFFFFFFFFF32
:102FF000FFF80000003CE7800000FFFFFFFFFFFF3D
:10300000FFF800000010E1000000FFFFFFFFFFFFDE
:10301000FFF800000000E0000000FFFFFFFFFFFFDF
:10302000FFF800000000E0000000FFFFFFFFFFFFCF
:10303000FFF800000000E0000000FFFFFFFFFFFFBF
:10304000FFF80000000040000000FFFFFFFFFFFF4F
:10305000FFF80000000000000000FFFFFFFFFFFF7F
:10306000FFF80000000000000000FFFFFFFFFFFF6F
:10307000FFF80000000000000000FFFFFFFFFFFF5F
:10308000FFF80000000000000000FFFFFFFFFFFF4F
:10309000FFF80000000000000000FFFFFFFFFFFF3F
:1030A000FFF80000000000000000FFFFFFFFFFFF2F
:1030B000FFF80000000000000000FFFFFFFFFFFF1F
:1030C000FFFFFFFFFFFFFFFFFFFF0000000000000A
:1030D000000FFFFFFFFFFFFFFFFF000000000000E9
:1030E000000FFFFFFFFFFFFFFFFF000000000000D9
:1030F000000FFFFFFFFFFFFFFFFF000000000000C9
:10310000000FFFFFFFFFFFFFFFFF000000000000B8
:10311000000FFFFFFFFFFFFFFFFF000000000000A8
:10312000000FFFFFFFFFFFFFFFFF00000000000098
:10313000000FFFFFFFFFFFFFFFFF00000000000088
:10314000000FFFFFFFFFFFFFFFFF00000000000078
:10315000000FFFFFFFFFFFFFFFFF00000000000068
:10316000000FFFFFFFFFFFFFFFFF00000000000058
:10317000000FFFFFFFFFFFFFFFFF0000000FC00079
:10318000000FFFFFFFFFFFFFFFFF0000007FFC00BD
:10319000000FFFFFFFFFFFFFFFFF000001FFFF80A9
:1031A000000FFFFFFFFFFFFFFFFF000007FFFFC053
:1031B000000FFFFFFFFFFFFFFFFF00000FFFFFF00B
:1031C000000FFFFFFFFFFFFFFFFF00003FFFFFF0CB
:1031D000000FFFFFFFFFFFFFFFFF00007FFFFFFC6F
:1031E000000FFFFFFFFFFFFFFFFF0000FFFFFFFEDD
:1031F000000FFFFFFFFFFFFFFFFF0001FFFFFFFECC
:10320000000FFFFFFFFFFFFFFFFF0001FFFFFFFFBA
:10321000000FFFFFFFFFFFFFFFFF0003FFFFFFFFA8
:10322000000FFFFFFFFFFFFFFFFF0003FFFFFFFF98
:10323000800FFFFFFFFFFFFFFFFF0007FFFFFFFF04
:10324000800FFFFFFFFFFFFFFFFF0007FFFFFFFFF4
:10325000C00FFFFFFFFFFFFFFFFF0007FFFFFFFFA4
:10326000C00FFFFFFFFFFFFFFFFF0007FFFFFFFF94
:10327000C00FFFFFFFFFFFFFFFFF000FFFFFFFFF7C
:10328000C00FFFFFFFFFFFFFFFFF000FFFFFFFFF6C
:10329000E00FFFFFFFFFFFFFFFFF000FFFFFFFFF3C
:1032A000E00FFFFFFFFFFFFFFFFF000FFFFFFFFF2C
:1032B000E00FFFFFFFFFFFFFFFFF000FFFFFFFFF1C
:1032C000E00FFFFFFFFFFFFFFFFF000FFFFFFFFF0C
:1032D000E00FFFFFFFFFFFFFFFFF0007FFFFFFFF04
:1032E000E00FFFFFFFFFFFFFFFFF0007FFFFFFFFF4
:1032F000C00FFFFFFFFFFFFFFFFF0007FFFFFFFF04
:10330000C00FFFFFFFFFFFFFFFFF0007FFFFFFFFF3
:10331000C00FFFFFFFFFFFFFFFFF0003FFFFFFFFE7
:10332000800FFFFFFFFFFFFFFFFF0003FFFFFFFF17
:10333000800FFFFFFFFFFFFFFFFF0001FFFFFFFF09
:10334000000FFFFFFFFFFFFFFFFF0001FFFFFFFF79
:10335000000FFFFFFFFFFFFFFFFF0000FFFFFFFE6B
:10336000000FFFFFFFFFFFFFFFFF00007FFFFFFCDD
:10337000000FFFFFFFFFFFFFFFFF00007FFFFFFCCD
:10338000000FFFFFFFFFFFFFFFFF00003FFFFFF009
:10339000000FFFFFFFFFFFFFFFFF00001FFFFFF019
:1033A000000FFFFFFFFFFFFFFFFF000007FFFFC051
:1033B000000FFFFFFFFFFFFFFFFF000003FFFF0005
:1033C000000FFFFFFFFFFFFFFFFF0000007FFC007B
:1033D000000FFFFFFFFFFFFFFFFF0000000FC00017
:1033E000000FFFFFFFFFFFFFFFFF000000000000D6
:1033F000000FFFFFFFFFFFFFFFFF000000000000C6
:10340000000FFFFFFFFFFFFFFFFF000000000000B5
:10341000000FFFFFFFFFFFFFFFFF000000000000A5
:10342000000FFFFFFFFFFFFFFFFF00000000000095
:10343000000FFFFFFFFFFFFFFFFF00000000000085
:10344000000FFFFFFFFFFFFFFFFF00000000000075
:10345000000FFFFFFFFFFFFFFFFF00000000000065
:10346000000FFFFFFFFFFFFFFFFF00000000000055
:10347000000FFFFFFFFFFFFFFFFF00000000000045
:10348000000FFFFFFFFFFFFFFFFF00000000000035
:10349000000FFFFFFFFFFFFFFFFF00000000000025
:1034A000000FFFFFFFFFFFFFFFFF00000000000015
:1034B000000FFFFFFFFFFFFFFFFF00000000000005
:1034C000000FFFFFFFFFFFFFFFFF000000000000F5
:1034D000000FFFFFFFFFFFFFFFFF0000001FF000D6
:1034E000000FFFFFFFFFFFFFFFFF000000FFFC00DA
:1034F000000FFFFFFFFFFFFFFFFF000001FFFF8046
:10350000000FFFFFFFFFFFFFFFFF000007FFFFC0EF
:10351000000FFFFFFFFFFFFFFFFF00001FFFFFE0A7
:10352000000FFFFFFFFFFFFFFFFF00003FFFFFF85F
:10353000000FFFFFFFFFFFFFFFFF00007FFFFFF80F
:10354000000FFFFFFFFFFFFFFFFF0000FFFFFFFC7B
:10355000000FFFFFFFFFFFFFFFFF0000FFFFFFFE69
:10356000000FFFFFFFFFFFFFFFFF0001FFFFFFFF57
:10357000000FFFFFFFFFFFFFFFFF0003FFFFFFFF45
:10358000000FFFFFFFFFFFFFFFFF0003FFFFFFFF35
:10359000800FFFFFFFFFFFFFFFFF0003FFFFFFFFA5
:1035A000800FFFFFFFFFFFFFFFFF0007FFFFFFFF91
:1035B000C00FFFFFFFFFFFFFFFFF0007FFFFFFFF41
:1035C000C00FFFFFFFFFFFFFFFFF0007FFFFFFFF31
:1035D000E00FFFFFFFFFFFFFFFFF000FFFFFFFFFF9
:1035E000E00FFFFFFFFFFFFFFFFF000FFFFFFFFFE9
:1035F000E00FFFFFFFFFFFFFFFFF000FFFFFFFFFD9
:10360000E00FFFFFFFFFFFFFFFFF000FFFFFFFFFC8
:10361000E00FFFFFFFFFFFFFFFFF000FFFFFFFFFB8
:10362000E00FFFFFFFFFFFFFFFFF000FFFFFFFFFA8
:10363000E00FFFFFFFFFFFFFFFFF000FFFFFFFFF98
:10364000E00FFFFFFFFFFFFFFFFF0007FFFFFFFF90
:10365000C00FFFFFFFFFFFFFFFFF0007FFFFFFFFA0
:10366000C00FFFFFFFFFFFFFFFFF0007FFFFFFFF90
:10367000C00FFFFFFFFFFFFFFFFF0003FFFFFFFF84
:10368000800FFFFFFFFFFFFFFFFF0003FFFFFFFFB4
:10369000800FFFFFFFFFFFFFFFFF0001FFFFFFFFA6
:1036A000000FFFFFFFFFFFFFFFFF0001FFFFFFFF16
:1036B000000FFFFFFFFFFFFFFFFF0000FFFFFFFE08
:1036C000000FFFFFFFFFFFFFFFFF0000FFFFFFFEF8
:1036D000000FFFFFFFFFFFFFFFFF00007FFFFFFC6A
:1036E000000FFFFFFFFFFFFFFFFF00003FFFFFF89E
:1036F000000FFFFFFFFFFFFFFFFF00000FFFFFF0C6
:10370000000FFFFFFFFFFFFFFFFF000007FFFFE0CD
:10371000000FFFFFFFFFFFFFFFFF000003FFFFC0E1
:10372000000FFFFFFFFFFFFFFFFF0000007FFE0015
:10373000000FFFFFFFFFFFFFFFFF0000001FF00073
:10374000000FFFFFFFFFFFFFFFFF00000000000072
:10375000000FFFFFFFFFFFFFFFFF00000000000062
:10376000000FFFFFFFFFFFFFFFFF00000000000052
:10377000000FFFFFFFFFFFFFFFFF00000000000042
:10378000000FFFFFFFFFFFFFFFFF00000000000032
:10379000000FFFFFFFFFFFFFFFFF00000000000022
:1037A000000FFFFFFFFFFFFFFFFF00000000000012
:1037B000000FFFFFFFFFFFFFFFFF00000000000002
:1037C000000FFFFFFFFFFFFFFFFF000000000000F2
:1037D000000FFFFFFFFFFFFFFFFF000000000000E2
:1037E000000FFFFFFFFFFFFFFFFF000000000000D2
:1037F000000FFFFFFFFFFFFFFFFF00001C38000866
:1038000000000020180000006C0100083438000897
:103810001800002060060000880100080000000079
:103820000102030401020304060708090204060852
:043830000000000094
:0400000508000131BD
:00000001FF
